:100000000C9462000C948A000C948A000C948A0070
:100010000C948A000C948A000C948A000C948A0038
:100020000C948A000C948A000C948A000C948A0028
:100030000C948A000C948A000C948A000C948A0018
:100040000C9413030C948A000C94E1020C94BB02F0
:100050000C948A000C948A000C948A000C948A00F8
:100060000C948A000C948A000000000024002700F1
:100070002A0000000000250028002B0000000008D6
:10008000000201000003040700000000000000005F
:1000900000000000230026002900040404040404D6
:1000A0000404020202020202030303030303010227
:1000B00004081020408001020408102001020408F6
:1000C0001020A20311241FBECFEFD8E0DEBFCDBFAA
:1000D00011E0A0E0B1E0E8E8FAE002C005900D927E
:1000E000A232B107D9F722E0A2E2B1E001C01D922D
:1000F000A730B207E1F710E0C2E6D0E004C02197D4
:10010000FE010E941505C136D107C9F70E94E5031B
:100110000C9442050C940000CF92DF92EF92FF9274
:100120000F931F93CF93DF936C017A018B01C0E093
:10013000D0E0CE15DF0589F0D8016D918D01D60193
:10014000ED91FC910190F081E02DC6010995892B7C
:1001500011F47E0102C02196ECCFC701DF91CF914F
:100160001F910F91FF90EF90DF90CF900895FC01C9
:10017000918D828D981761F0828DDF01A80FB11DDE
:100180005D968C91928D9F5F9F73928F90E0089502
:100190008FEF9FEF0895FC01918D828D981731F0BC
:1001A000828DE80FF11D858D90E008958FEF9FEF10
:1001B0000895FC01918D228D892F90E0805C9F4FE6
:1001C000821B91098F739927089582E691E00E941E
:1001D000D90021E0892B09F420E0822F0895FC0149
:1001E000848DDF01A80FB11DA35ABF4F2C91848DC0
:1001F00090E001968F739927848FA689B7892C93F5
:10020000A089B1898C9180648C93938D848D98138F
:1002100006C00288F389E02D80818F7D8083089558
:10022000EF92FF920F931F93CF93DF93EC0181E046
:10023000888F9B8D8C8D981305C0E889F989808102
:1002400085FD24C0F62E0B8D10E00F5F1F4F0F733E
:100250001127E02E8C8DE8120CC00FB607FCFACFE8
:10026000E889F989808185FFF5CFCE010E94EF00F2
:10027000F1CF8B8DFE01E80FF11DE35AFF4FF082A5
:100280000B8FEA89FB898081806207C0EE89FF8934
:100290006083E889F98980818064808381E090E0CF
:1002A000DF91CF911F910F91FF90EF900895CF9321
:1002B000DF93EC01888D8823C9F0EA89FB8980816E
:1002C00085FD05C0A889B9898C9186FD0FC00FB640
:1002D00007FCF5CF808185FFF2CFA889B9898C9181
:1002E00085FFEDCFCE010E94EF00E7CFDF91CF91E8
:1002F000089580E090E0892B29F00E94E5008111AB
:100300000C940000089590E0FC01E458FF4F3491F4
:10031000FC01E255FF4F2491FC01E656FF4FE491AA
:10032000EE2309F43BC0332339F1333091F038F434
:100330003130A9F0323001F584B58F7D12C03730ED
:1003400091F03830A1F03430B9F4809180008F7D85
:1003500003C0809180008F77809380000DC084B5AA
:100360008F7784BD09C08091B0008F7703C08091E2
:10037000B0008F7D8093B000F0E0EE0FFF1FEE58CD
:10038000FF4FA591B4918FB7F894EC91611103C020
:1003900020952E2301C02E2B2C938FBF0895CF9331
:1003A000DF9390E0FC01E255FF4F2491FC01E656FB
:1003B000FF4F8491882361F190E0880F991FFC0121
:1003C000E859FF4FC591D491FC01EE58FF4FA5911C
:1003D000B491611109C09FB7F89488812095822358
:1003E0008883EC912E230BC0623061F49FB7F894A0
:1003F0003881822F809583238883EC912E2B2C9338
:100400009FBF06C08FB7F894E8812E2B28838FBF3B
:10041000DF91CF9108953FB7F89480912301909197
:100420002401A0912501B091260126B5A89B05C005
:100430002F3F19F00196A11DB11D3FBFBA2FA92F63
:10044000982F8827820F911DA11DB11DBC01CD01E0
:1004500042E0660F771F881F991F4A95D1F70895CC
:100460008F929F92AF92BF92CF92DF92EF92FF92C4
:100470006B017C010E940B024B015C01C114D10491
:10048000E104F104F1F00E940B02DC01CB018819B8
:100490009909AA09BB09883E9340A105B10570F3EB
:1004A00021E0C21AD108E108F10888EE880E83E045
:1004B000981EA11CB11CC114D104E104F10419F768
:1004C000DDCFFF90EF90DF90CF90BF90AF909F90E7
:1004D0008F9008950F931F9360E08091FF010E9419
:1004E000830183E090E00197F1F761E08091FF01E3
:1004F0000E94830183E290E00197F1F760E0809130
:10050000FF010E94830180910102909102029927CC
:10051000FC01E255FF4F6491FC01E656FF4FE49168
:10052000F0E0EE0FFF1FE057FF4F8591949100E43C
:1005300012E42FE030E0462F0E945D036115710543
:100540008105910549F0DC01CB010196A11DB11D8A
:10055000BC01CD019F7003C060E070E0CB012AE3D5
:1005600030E040E050E00E94F604C9011F910F9175
:1005700008950E941B051F920F920FB60F9211242F
:100580002F933F934F935F936F937F938F939F939B
:10059000AF93BF93EF93FF9382E691E00E94EF0049
:1005A000FF91EF91BF91AF919F918F917F916F914B
:1005B0005F914F913F912F910F900FBE0F901F9021
:1005C00018951F920F920FB60F9211242F938F93AD
:1005D0009F93EF93FF93E0917201F09173018081FB
:1005E000E0917801F091790182FD12C090818091B3
:1005F0007B018F5F8F7320917C01821751F0E09116
:100600007B01F0E0EE59FE4F958F80937B0101C096
:100610008081FF91EF919F918F912F910F900FBE4D
:100620000F901F9018951F920F920FB60F921124E2
:100630002F933F938F939F93AF93BF938091270105
:1006400090912801A0912901B0912A0130912201B5
:1006500023E0230F2D3720F40196A11DB11D05C005
:1006600026E8230F0296A11DB11D2093220180933D
:10067000270190932801A0932901B0932A0180912A
:10068000230190912401A0912501B09126010196AA
:10069000A11DB11D8093230190932401A0932501F6
:1006A000B0932601BF91AF919F918F913F912F9170
:1006B0000F900FBE0F901F901895CF92DF92EF9280
:1006C000FF920F931F93E82FF92F05C001501109D6
:1006D0002109310961F1908196239417B9F305C07E
:1006E000015011092109310911F1908196239413C8
:1006F000F7CFC12CD12CE12CF12C0AC08FEFC81AF6
:10070000D80AE80AF80A0C151D052E053F0579F0F0
:1007100080818623841791F36C2D7D2D8E2D9F2D46
:100720001F910F91FF90EF90DF90CF90089560E0C0
:1007300070E080E090E01F910F91FF90EF90DF90CC
:10074000CF900895E2E6F1E01382128288EE93E002
:10075000A0E0B0E084839583A683B78384E091E032
:100760009183808385EC90E09587848784EC90E08A
:100770009787868780EC90E0918B808B81EC90E06E
:10078000938B828B82EC90E0958B848B86EC90E04F
:10079000978B868B118E128E138E148E84E090E0D0
:1007A000909306028093050283E090E09093040208
:1007B00080930302EFEFF1E08BE090E0938382837C
:1007C0008CE090E0918380830895789484B5826072
:1007D00084BD84B5816084BD85B5826085BD85B5E5
:1007E000816085BD80916E00816080936E00109263
:1007F00081008091810082608093810080918100DE
:10080000816080938100809180008160809380006E
:100810008091B10084608093B1008091B0008160CC
:100820008093B00080917A00846080937A008091F8
:100830007A00826080937A0080917A008160809350
:100840007A0080917A00806880937A001092C100CB
:1008500010925E0110925F0110926001109261018E
:1008600010922C0110922D0110922E0110922F0146
:1008700060ED77E080E090E00E94300282E691E057
:1008800090935D0180935C01E0917201F09173019E
:1008900082E08083E0916E01F0916F011082E0911F
:1008A0007001F091710180E1808310927A01E091F2
:1008B0007601F091770186E08083E0917401F091F8
:1008C0007501808180618083E0917401F0917501F0
:1008D000808188608083E0917401F091750180814E
:1008E00080688083E0917401F091750180818F7D33
:1008F00080832FB7F8948091270190912801A091CF
:100900002901B0912A012FBF40912C0150912D0156
:1009100060912E0170912F01841B950BA60BB70BD4
:10092000C297A105B10538F463E070E080E090E083
:100930000E943002DECF2FB7F8948091270190916A
:100940002801A0912901B0912A012FBF80932C0189
:1009500090932D01A0932E01B0932F0180915C0103
:1009600090915D01DC01ED91FC910280F381E02D1D
:1009700041E150E060E171E009956AE070E080E0FB
:1009800090E00E94300281E08093300161E080912C
:1009900003020E94CF0161E0809105020E94CF0115
:1009A00060E0809101020E94CF0161E08091FF012F
:1009B0000E94CF010E946A0205973CF460E080919A
:1009C00005020E94830160E00AC00E946A02069745
:1009D00054F061E0809105020E94830161E0809102
:1009E00003020E9483010E947901E4CF052E97FB48
:1009F0001EF400940E940D0557FD07D00E942005AB
:100A000007FC03D04EF40C940D055095409530959D
:100A100021953F4F4F4F5F4F08959095809570956A
:100A200061957F4F8F4F9F4F0895EE0FFF1F0590E9
:100A3000F491E02D099481E090E0F8940C94420543
:100A4000A1E21A2EAA1BBB1BFD010DC0AA1FBB1FD2
:100A5000EE1FFF1FA217B307E407F50720F0A21B44
:100A6000B30BE40BF50B661F771F881F991F1A94B1
:100A700069F760957095809590959B01AC01BD01DB
:080A8000CF010895F894FFCFA7
:100A88000000000010018C00D900B700CB0057010E
:100A9800564D4450565F317C315F564D4450560D8B
:020AA8000A0042
:00000001FF
